:060000000A128A11FC2F18
:100DF800F600760883120313860007140711871478
:100E08000130F0000030F1000A128A1148278312DD
:100E1800031387100800F600760883120313860070
:100E28000710071187140130F0000030F1000A1292
:100E38008A11482783120313871008000130F00035
:100E48000030F1000A128A1148270A128A11383034
:100E58000A128A110F270A128A1108300A128A11F7
:100E68000F270A128A1101300A128A110F270A1253
:100E78008A1106300A128A110F270A128A110E30B7
:100E88000A128A110F2708007108F301F307700886
:100E9800F201F2077308720403190800F401F5015E
:100EA8007508803AFF0093307F02031D5D2F88305C
:100EB80074020318702F0130F4070318F50A003084
:100EC800F5077508803AFF0093307F02031D6E2FE7
:100ED80088307402031C5F2FFF30F2070318F30AEF
:100EE800FF30F3074E2F8316031386018701FF3067
:100EF80088000A128A1122270A128A11F801F901B8
:100F080083120313081E842F08080F39F700770887
:100F1800FA00283078067904031D982FC0300A1289
:100F28008A110F270A128A117908803AFF00803047
:100F38007F02031DA12F50307802031CAA2F0A122A
:100F48008A1122270A128A11F801F901FA08031DE9
:100F5800AF2F3130F02F7A08013A031DB52F323008
:100F6800F02F7A08023A031DBB2F3330F02F7A088E
:100F7800043A031DC12F3430F02F7A08053A031DB7
:100F8800C72F3530F02F7A08063A031DCD2F36309B
:100F9800F02F7A08083A031DD32F3730F02F7A083C
:100FA800093A031DD92F3830F02F7A080A3A031D61
:100FB800DF2F3930F02F7A080C3A031DE52F2A303D
:100FC800F02F7A080D3A031DEB2F3030F02F7A08F6
:100FD8000E3A031DF52F23300A128A11FC260A1235
:100FE8008A110130F8070318F90A0030F907842F2D
:080FF80083010A128A11772F10
:00000001FF
