:060000000A128A11FC2F18
:100F40000630831603139F00051406108312031343
:100F5000061083120313051CA92F4130F100EE3057
:100F6000F000F00BB12FF10BB12F0000831203132F
:100F7000051CA92FF201F3017308803AFF008030AD
:100F80007F02031DC52F033072020318EE2F831258
:100F900003130614C330F100CD30F000F00BCE2F58
:100FA000F10BCE2F831203130610C330F100CD30A6
:100FB000F000F00BD92FF10BD92F0130F2070318F5
:100FC000F30A0030F3077308803AFF0080307F0295
:100FD000031DEC2F03307202031CC72F831203136F
:100FE0000518EE2F4130F100EE30F000F00BF62F37
:100FF000F10BF62F0000A92F83010A128A11A02FEE
:02400E003AFF77
:00000001FF
